{
  "_format": "hh-sol-artifact-1",
  "contractName": "DecentralizedAdPlatform",
  "sourceName": "contracts/DAO.sol",
  "abi": [
    {
      "inputs": [
        {
          "internalType": "address",
          "name": "_airDAOSBTAddress",
          "type": "address"
        },
        {
          "internalType": "address",
          "name": "_governanceTokenAddress",
          "type": "address"
        }
      ],
      "stateMutability": "nonpayable",
      "type": "constructor"
    },
    {
      "anonymous": false,
      "inputs": [
        {
          "indexed": false,
          "internalType": "address",
          "name": "advertiser",
          "type": "address"
        },
        {
          "indexed": false,
          "internalType": "enum DecentralizedAdPlatform.AdvertiserTier",
          "name": "newTier",
          "type": "uint8"
        }
      ],
      "name": "AdvertiserTierUpdated",
      "type": "event"
    },
    {
      "anonymous": false,
      "inputs": [
        {
          "indexed": false,
          "internalType": "uint256",
          "name": "campaignId",
          "type": "uint256"
        }
      ],
      "name": "CampaignApproved",
      "type": "event"
    },
    {
      "anonymous": false,
      "inputs": [
        {
          "indexed": false,
          "internalType": "uint256",
          "name": "campaignId",
          "type": "uint256"
        },
        {
          "indexed": false,
          "internalType": "address",
          "name": "advertiser",
          "type": "address"
        },
        {
          "indexed": false,
          "internalType": "string",
          "name": "campaignURI",
          "type": "string"
        },
        {
          "indexed": false,
          "internalType": "enum DecentralizedAdPlatform.AdvertiserTier",
          "name": "tier",
          "type": "uint8"
        }
      ],
      "name": "CampaignProposed",
      "type": "event"
    },
    {
      "anonymous": false,
      "inputs": [
        {
          "indexed": false,
          "internalType": "uint256",
          "name": "campaignId",
          "type": "uint256"
        }
      ],
      "name": "CampaignRejected",
      "type": "event"
    },
    {
      "anonymous": false,
      "inputs": [
        {
          "indexed": false,
          "internalType": "address",
          "name": "advertiser",
          "type": "address"
        },
        {
          "indexed": false,
          "internalType": "uint256",
          "name": "newReputation",
          "type": "uint256"
        }
      ],
      "name": "ReputationUpdated",
      "type": "event"
    },
    {
      "inputs": [
        {
          "internalType": "address",
          "name": "",
          "type": "address"
        }
      ],
      "name": "advertiserProfiles",
      "outputs": [
        {
          "internalType": "uint256",
          "name": "reputation",
          "type": "uint256"
        },
        {
          "internalType": "enum DecentralizedAdPlatform.AdvertiserTier",
          "name": "tier",
          "type": "uint8"
        },
        {
          "internalType": "uint256",
          "name": "campaignsProposed",
          "type": "uint256"
        },
        {
          "internalType": "uint256",
          "name": "campaignsApproved",
          "type": "uint256"
        },
        {
          "internalType": "uint256",
          "name": "sbtTokenId",
          "type": "uint256"
        }
      ],
      "stateMutability": "view",
      "type": "function"
    },
    {
      "inputs": [],
      "name": "airDAOSBT",
      "outputs": [
        {
          "internalType": "contract IAirDAOSBT",
          "name": "",
          "type": "address"
        }
      ],
      "stateMutability": "view",
      "type": "function"
    },
    {
      "inputs": [],
      "name": "campaignIdCounter",
      "outputs": [
        {
          "internalType": "uint256",
          "name": "",
          "type": "uint256"
        }
      ],
      "stateMutability": "view",
      "type": "function"
    },
    {
      "inputs": [
        {
          "internalType": "uint256",
          "name": "",
          "type": "uint256"
        }
      ],
      "name": "campaigns",
      "outputs": [
        {
          "internalType": "address",
          "name": "advertiser",
          "type": "address"
        },
        {
          "internalType": "string",
          "name": "campaignURI",
          "type": "string"
        },
        {
          "internalType": "uint256",
          "name": "minReputation",
          "type": "uint256"
        },
        {
          "internalType": "uint256",
          "name": "startTime",
          "type": "uint256"
        },
        {
          "internalType": "uint256",
          "name": "endTime",
          "type": "uint256"
        },
        {
          "internalType": "uint256",
          "name": "budget",
          "type": "uint256"
        },
        {
          "internalType": "uint256",
          "name": "amountSpent",
          "type": "uint256"
        },
        {
          "internalType": "enum DecentralizedAdPlatform.CampaignStatus",
          "name": "status",
          "type": "uint8"
        },
        {
          "internalType": "uint256",
          "name": "votesFor",
          "type": "uint256"
        },
        {
          "internalType": "uint256",
          "name": "votesAgainst",
          "type": "uint256"
        },
        {
          "internalType": "uint256",
          "name": "votingEndTime",
          "type": "uint256"
        },
        {
          "internalType": "string",
          "name": "privateLabel",
          "type": "string"
        },
        {
          "internalType": "string",
          "name": "publicLabel",
          "type": "string"
        },
        {
          "internalType": "enum DecentralizedAdPlatform.AdvertiserTier",
          "name": "tier",
          "type": "uint8"
        }
      ],
      "stateMutability": "view",
      "type": "function"
    },
    {
      "inputs": [
        {
          "internalType": "uint256",
          "name": "_campaignId",
          "type": "uint256"
        },
        {
          "internalType": "string",
          "name": "newMetadataURI",
          "type": "string"
        }
      ],
      "name": "executeVotingResult",
      "outputs": [],
      "stateMutability": "nonpayable",
      "type": "function"
    },
    {
      "inputs": [
        {
          "internalType": "address",
          "name": "advertiser",
          "type": "address"
        }
      ],
      "name": "getAdvertiserBenefits",
      "outputs": [
        {
          "internalType": "uint256",
          "name": "discountPercentage",
          "type": "uint256"
        },
        {
          "internalType": "uint256",
          "name": "maxCampaigns",
          "type": "uint256"
        }
      ],
      "stateMutability": "view",
      "type": "function"
    },
    {
      "inputs": [
        {
          "internalType": "uint256",
          "name": "_campaignId",
          "type": "uint256"
        }
      ],
      "name": "getVotingResult",
      "outputs": [
        {
          "internalType": "uint256",
          "name": "votesFor",
          "type": "uint256"
        },
        {
          "internalType": "uint256",
          "name": "votesAgainst",
          "type": "uint256"
        }
      ],
      "stateMutability": "view",
      "type": "function"
    },
    {
      "inputs": [],
      "name": "governanceToken",
      "outputs": [
        {
          "internalType": "contract IAirDAOGovernanceToken",
          "name": "",
          "type": "address"
        }
      ],
      "stateMutability": "view",
      "type": "function"
    },
    {
      "inputs": [
        {
          "internalType": "uint256",
          "name": "",
          "type": "uint256"
        },
        {
          "internalType": "address",
          "name": "",
          "type": "address"
        }
      ],
      "name": "hasVoted",
      "outputs": [
        {
          "internalType": "bool",
          "name": "",
          "type": "bool"
        }
      ],
      "stateMutability": "view",
      "type": "function"
    },
    {
      "inputs": [],
      "name": "minimumQuorum",
      "outputs": [
        {
          "internalType": "uint256",
          "name": "",
          "type": "uint256"
        }
      ],
      "stateMutability": "view",
      "type": "function"
    },
    {
      "inputs": [
        {
          "internalType": "string",
          "name": "_campaignURI",
          "type": "string"
        },
        {
          "internalType": "uint256",
          "name": "_minReputation",
          "type": "uint256"
        },
        {
          "internalType": "uint256",
          "name": "_startTime",
          "type": "uint256"
        },
        {
          "internalType": "uint256",
          "name": "_endTime",
          "type": "uint256"
        },
        {
          "internalType": "uint256",
          "name": "_budget",
          "type": "uint256"
        },
        {
          "internalType": "string",
          "name": "_privateLabel",
          "type": "string"
        },
        {
          "internalType": "string",
          "name": "_publicLabel",
          "type": "string"
        },
        {
          "internalType": "string",
          "name": "_metadataURI",
          "type": "string"
        },
        {
          "internalType": "uint256",
          "name": "_reputation",
          "type": "uint256"
        }
      ],
      "name": "proposeCampaign",
      "outputs": [],
      "stateMutability": "nonpayable",
      "type": "function"
    },
    {
      "inputs": [
        {
          "internalType": "address",
          "name": "advertiser",
          "type": "address"
        },
        {
          "internalType": "string",
          "name": "newMetadataURI",
          "type": "string"
        },
        {
          "internalType": "uint256",
          "name": "newReputation",
          "type": "uint256"
        }
      ],
      "name": "updateAdvertiserProfile",
      "outputs": [],
      "stateMutability": "nonpayable",
      "type": "function"
    },
    {
      "inputs": [
        {
          "internalType": "uint256",
          "name": "_campaignId",
          "type": "uint256"
        },
        {
          "internalType": "bool",
          "name": "_approve",
          "type": "bool"
        }
      ],
      "name": "voteOnCampaign",
      "outputs": [],
      "stateMutability": "nonpayable",
      "type": "function"
    },
    {
      "inputs": [],
      "name": "votingPeriod",
      "outputs": [
        {
          "internalType": "uint256",
          "name": "",
          "type": "uint256"
        }
      ],
      "stateMutability": "view",
      "type": "function"
    }
  ],
  "bytecode": "0x60c0346200015d57601f62001cb738819003918201601f19168301916001600160401b03831184841017620001625780849260409485528339810103126200015d576200005a6020620000528362000178565b920162000178565b6001600055620151806005556103e86006556001600160a01b0391821691908215620001185716908115620000d45760805260a052604051611b2990816200018e8239608051818181610148015281816103160152818161044c0152818161134b0152611715015260a05181818161010301526105cd0152f35b606460405162461bcd60e51b815260206004820152602060248201527f496e76616c696420676f7665726e616e636520746f6b656e20616464726573736044820152fd5b60405162461bcd60e51b815260206004820152601960248201527f496e76616c69642041697244414f5342542061646472657373000000000000006044820152606490fd5b600080fd5b634e487b7160e01b600052604160045260246000fd5b51906001600160a01b03821682036200015d5756fe608080604052600436101561001357600080fd5b60003560e01c90816302a251a31461112b57508063141961bc1461100357806315eab29a14610fbd5780631c0d850e14610f495780632e61867614610f2b5780634385963214610ed95780636178713d1461076d5780638160f0b51461074f578063aff9adab1461052c578063cb59dcb2146101e8578063f1e8aff114610177578063f2dd0e7114610132578063f96dae0a146100ed5763f9f2e558146100b957600080fd5b346100e85760203660031901126100e85760406100dc6100d7611294565b6116aa565b82519182526020820152f35b600080fd5b346100e85760003660031901126100e8576040517f00000000000000000000000000000000000000000000000000000000000000006001600160a01b03168152602090f35b346100e85760003660031901126100e8576040517f00000000000000000000000000000000000000000000000000000000000000006001600160a01b03168152602090f35b346100e85760203660031901126100e8576001600160a01b03610198611294565b16600052600460205260a0604060002080549060ff6001820154169060028101546101d760046003840154930154936040519586526020860190611287565b604084015260608301526080820152f35b346100e85760403660031901126100e85760043560243567ffffffffffffffff81116100e85761021c9036906004016112aa565b9061022a6001548210611562565b80600052602060028152604060002090600782019283549360ff8516600681101561051657600161025b91146115a4565b61026a600a85015442116115f0565b600884015490600985015461028c6102828285611635565b6006541115611642565b60018060a01b039687875416918260005260048752604060002094116000146103fa575050805460ff1916600217905560030180546102ca90611683565b90558383541680600052600483526040600020958654600a81018091116103e457875560405163d0def52160e01b81529084908290819061030f908660048401611301565b038160008a7f0000000000000000000000000000000000000000000000000000000000000000165af180156103d8576103a9575b509454604080516001600160a01b03909716875260208701919091526103a7957f3aa476b7499359259e68e236e4ba85f83ff093e3b6341e6a3f6f295d9cd68877939291600080516020611ad483398151915291a1604051908152a15b5416611899565b005b9280929193813d83116103d1575b6103c18183611180565b810103126100e857909186610343565b503d6103b7565b6040513d6000823e3d90fd5b634e487b7160e01b600052601160045260246000fd5b60ff1916600317909155815491969091846005821115610509575060041981019081116103e4576104459185915b89556040518093819263d0def52160e01b83528660048401611301565b038160008a7f0000000000000000000000000000000000000000000000000000000000000000165af180156103d8576104da575b509454604080516001600160a01b03909716875260208701919091526103a7957fc3f451c8eba813b83ed73bf2904347fff970b9ca06227a6507f7e9cd971ff113939291600080516020611ad483398151915291a1604051908152a16103a0565b9280929193813d8311610502575b6104f28183611180565b810103126100e857909186610479565b503d6104e8565b9050610445916000610428565b634e487b7160e01b600052602160045260246000fd5b346100e85760403660031901126100e8576024600435813580151581036100e85761055a6001548310611562565b816000526020926002845260406000209060ff600783015416600681101561073a57600161058891146115a4565b600a82015442116106ff578360005260038552604060002033600052855260ff604060002054166106cc576040516370a0823160e01b815233600482015290858282817f00000000000000000000000000000000000000000000000000000000000000006001600160a01b03165afa9182156103d85760009261069d575b508115610667575061061790611990565b911561065157600861062c9101918254611635565b90555b600090815260038252604080822033835290925220805460ff19166001179055005b60096106609101918254611635565b905561062f565b8560106064926040519262461bcd60e51b845260048401528201526f4e6f20766f74696e672072696768747360801b6044820152fd5b9091508581813d83116106c5575b6106b58183611180565b810103126100e857519086610606565b503d6106ab565b84600d6064926040519262461bcd60e51b845260048401528201526c105b1c9958591e481d9bdd1959609a1b6044820152fd5b8460156064926040519262461bcd60e51b84526004840152820152742b37ba34b733903832b934b7b21034b99037bb32b960591b6044820152fd5b50634e487b7160e01b60009081526021600452fd5b346100e85760003660031901126100e8576020600654604051908152f35b346100e8576101203660031901126100e85760043567ffffffffffffffff81116100e85761079f9036906004016112aa565b60a43567ffffffffffffffff81116100e8576107bf9036906004016112aa565b9060c43567ffffffffffffffff81116100e8576107e09036906004016112aa565b9160e43567ffffffffffffffff81116100e8576108019036906004016112aa565b92825115610e94576044356064351115610e455760843515610e015733600052600460205261083a604060002094610104359033611326565b602435845410610dbc576001549161085183611683565b60015561086060055442611635565b9160ff6001870154169160405193846101c081011067ffffffffffffffff6101c087011117610c06576101c0850160405233855286602086015260243560408601526044356060860152606435608086015260843560a0860152600060c0860152600160e0860152600061010086015260006101208601526101408501526101608401526101808301526004811015610516576101a082015281600052600260205260406000209060018060a01b038151166bffffffffffffffffffffffff60a01b835416178255602081015180519067ffffffffffffffff8211610c0657819061094e6001860154611146565b601f8111610d69575b50602090601f8311600114610cf757600092610cec575b50508160011b916000199060031b1c19161760018301555b60408101516002830155606081015160038301556080810151600483015560a0810151600583015560c081015160068301556007820160e082015160068110156105165760ff8019835416911617905561010081015160088301556101208101516009830155610140810151600a83015561016081015180519067ffffffffffffffff8211610c06578190610a1e600b860154611146565b601f8111610c99575b50602090601f8311600114610c2757600092610c1c575b50508160011b916000199060031b1c191617600b8301555b61018081015180519067ffffffffffffffff8211610c0657610a7b600c850154611146565b601f8111610bbf575b50602090601f8311600114610b4b576101a093929160009183610b40575b50508160011b916000199060031b1c191617600c8401555b01516004811015610516577fe70c2c8fe6b59e8d5e3fd9776fa5c77a60227915ce36b96f444065a3def0fad894610af8600192600d60ff9501611692565b60028101610b068154611683565b9055015416610b3b610b306040519485948552336020860152608060408601526080850190611247565b916060840190611287565b0390a1005b015190508880610aa2565b90600c850160005260206000209160005b601f1985168110610ba757509183916001936101a09695601f19811610610b8e575b505050811b01600c840155610aba565b015160001960f88460031b161c19169055888080610b7e565b91926020600181928685015181550194019201610b5c565b600c85016000526020600020601f840160051c810160208510610bff575b601f830160051c82018110610bf3575050610a84565b60008155600101610bdd565b5080610bdd565b634e487b7160e01b600052604160045260246000fd5b015190508780610a3e565b9250600b85016000526020600020906000935b601f1984168510610c7e576001945083601f19811610610c65575b505050811b01600b830155610a56565b015160001960f88460031b161c19169055878080610c55565b81810151835560209485019460019093019290910190610c3a565b909150600b85016000526020600020601f840160051c810160208510610ce5575b90849392915b601f830160051c82018110610cd6575050610a27565b60008155859450600101610cc0565b5080610cba565b01519050878061096e565b9250600185016000526020600020906000935b601f1984168510610d4e576001945083601f19811610610d35575b505050811b016001830155610986565b015160001960f88460031b161c19169055878080610d25565b81810151835560209485019460019093019290910190610d0a565b909150600185016000526020600020601f840160051c810160208510610db5575b90849392915b601f830160051c82018110610da6575050610957565b60008155859450600101610d90565b5080610d8a565b60405162461bcd60e51b815260206004820152601760248201527f496e73756666696369656e742072657075746174696f6e0000000000000000006044820152606490fd5b606460405162461bcd60e51b815260206004820152602060248201527f427564676574206d7573742062652067726561746572207468616e207a65726f6044820152fd5b60405162461bcd60e51b815260206004820152602160248201527f456e642074696d65206d7573742062652061667465722073746172742074696d6044820152606560f81b6064820152608490fd5b60405162461bcd60e51b815260206004820152601c60248201527f43616d706169676e205552492063616e6e6f7420626520656d707479000000006044820152606490fd5b346100e85760403660031901126100e8576024356001600160a01b038116908190036100e8576004356000526003602052604060002090600052602052602060ff604060002054166040519015158152f35b346100e85760003660031901126100e8576020600154604051908152f35b346100e85760203660031901126100e857600435610f6a6001548210611562565b6000526002602052604060002060ff60078201541690600682101561051657610f976001604093146115a4565b610fa6600a82015442116115f0565b600960088201549101546100dc6102828284611635565b346100e85760603660031901126100e857610fd6611294565b6024359067ffffffffffffffff82116100e857610ffa6103a79236906004016112aa565b60443591611326565b346100e85760203660031901126100e857600435600090815260026020526040902080546001600160a01b03169061103d600182016111a2565b91600282015490600383015490600484015493600581015492600682015492600783015460ff1691600884015494600985015496600a86015499600b8701611084906111a2565b93611091600c89016111a2565b97600d015460ff169a6040519d8e976101c09089528060208a015288016110b791611247565b966040015260608d015260808c015260a08b015260c08a015260068310156105165788976111279661111b9661110c9560e08c01526101008b01526101208a0152610140890152878203610160890152611247565b90858203610180870152611247565b916101a0840190611287565b0390f35b346100e85760003660031901126100e8576020906005548152f35b90600182811c92168015611176575b602083101461116057565b634e487b7160e01b600052602260045260246000fd5b91607f1691611155565b90601f8019910116810190811067ffffffffffffffff821117610c0657604052565b906040519182600082546111b581611146565b9081845260209460019160018116908160001461122557506001146111e6575b5050506111e492500383611180565b565b600090815285812095935091905b81831061120d5750506111e493508201013880806111d5565b855488840185015294850194879450918301916111f4565b925050506111e494925060ff191682840152151560051b8201013880806111d5565b919082519283825260005b848110611273575050826000602080949584010152601f8019910116010190565b602081830181015184830182015201611252565b9060048210156105165752565b600435906001600160a01b03821682036100e857565b81601f820112156100e85780359067ffffffffffffffff8211610c0657604051926112df601f8401601f191660200185611180565b828452602083830101116100e857816000926020809301838601378301015290565b6001600160a01b03909116815260406020820181905261132392910190611247565b90565b9291909260018060a01b038082166000818152600490602092828452604098898320957f000000000000000000000000000000000000000000000000000000000000000016918a51906370a0823160e01b8252858201528581602481865afa908115611558578491611527575b5061146a576113ba839286928c5195868094819363d0def52160e01b83528d8b8401611301565b03925af193841561145e57819461141a575b50505082600080516020611ad483398151915296979286926114159501555b556113f583611899565b516001600160a01b03909216825260208201929092529081906040820190565b0390a1565b909180939450813d8311611457575b6114338183611180565b81010312611454575051908281600080516020611ad48339815191526113cc565b80fd5b503d611429565b508851903d90823e3d90fd5b8493929491878685890195865415600014611508576114a89661148c84611708565b90558d5163d0def52160e01b8152968795869485938401611301565b03925af180156114fe576114d5575b505050600080516020611ad4833981519152939483611415926113eb565b813d83116114f7575b6114e88183611180565b810103126114545780806114b7565b503d6114de565b88513d85823e3d90fd5b6114a896508d519687958694859363d0def52160e01b85528401611301565b90508581813d8311611551575b61153e8183611180565b8101031261154d575138611393565b8380fd5b503d611534565b8b513d86823e3d90fd5b1561156957565b60405162461bcd60e51b8152602060048201526013602482015272125b9d985b1a590818d85b5c185a59db881251606a1b6044820152606490fd5b156115ab57565b60405162461bcd60e51b815260206004820152601f60248201527f43616d706169676e206973206e6f7420696e20766f74696e67207374616765006044820152606490fd5b156115f757565b60405162461bcd60e51b81526020600482015260166024820152752b37ba34b733903832b934b7b2103737ba1037bb32b960511b6044820152606490fd5b919082018092116103e457565b1561164957565b60405162461bcd60e51b8152602060048201526012602482015271145d5bdc9d5b481b9bdd081c995858da195960721b6044820152606490fd5b60001981146103e45760010190565b9060048110156105165760ff80198354169116179055565b60018060a01b0316600052600460205260ff60016040600020015416600481101561051657600381036116e05750601490600a90565b600281036116f15750600f90600790565b60010361170057600a90600590565b600090600390565b6001906001600160a01b037f0000000000000000000000000000000000000000000000000000000000000000811683805b611783575b60405162461bcd60e51b815260206004820152601c60248201527f534254206e6f7420666f756e6420666f722061647665727469736572000000006044820152606490fd5b60408051906370a0823160e01b82526004858716928382820152602090602490828183818b5afa90811561188e57600091611861575b5086116118575783516331a9108f60e11b81529283018690528190839081895afa92831561184d57509086929160009261180d575b50501614611805576117ff90611683565b84611739565b935050505090565b9080929350813d8311611846575b6118258183611180565b8101031261184257519085821682036114545750849038806117ee565b5080fd5b503d61181b565b513d6000823e3d90fd5b505050505061173e565b908382813d8311611887575b6118778183611180565b81010312611454575051386117b9565b503d61186d565b85513d6000823e3d90fd5b6001600160a01b031660008181526004602052604081208054919290916127108110611942575060016003925b019260ff84541690600482101561192e57600484101561192e575082036118ec57505050565b61192b8261191c6040947e8c8ed48a7170769fb9d17f8c741b5ea73aa5cccb1dd839456564baa487f0f796611692565b83519283526020830190611287565ba1565b634e487b7160e01b81526021600452602490fd5b6113888110611956575060016002926118c6565b6103e81161196757600180926118c6565b600183926118c6565b811561197a570490565b634e487b7160e01b600052601260045260246000fd5b8015611acd57611a5b816000908360801c80611ac1575b508060401c80611ab4575b508060201c80611aa7575b508060101c80611a9a575b508060081c80611a8d575b508060041c80611a80575b508060021c80611a73575b50600191828092811c611a6c575b1c1b611a038185611970565b01811c611a108185611970565b01811c611a1d8185611970565b01811c611a2a8185611970565b01811c611a378185611970565b01811c611a448185611970565b01811c611a518185611970565b01901c8092611970565b80821015611a67575090565b905090565b01816119f7565b60029150910190386119e9565b60049150910190386119de565b60089150910190386119d3565b60109150910190386119c8565b60209150910190386119bd565b60409150910190386119b2565b915050608090386119a7565b5060009056fefc577563f1b9a0461e24abef1e1fcc0d33d3d881f20b5df6dda59de4aae2c821a2646970667358221220718df328ba2ec9465f98975f48a5c0212b2e4b0dd577d974735bf7ea6181054264736f6c63430008180033",
  "linkReferences": {},
  "deployedLinkReferences": {}
}