{
  "_format": "hh-sol-artifact-1",
  "contractName": "AirDAOSBT",
  "sourceName": "contracts/AIRDaoSBT.sol",
  "abi": [
    {
      "inputs": [],
      "stateMutability": "nonpayable",
      "type": "constructor"
    },
    {
      "anonymous": false,
      "inputs": [
        {
          "indexed": true,
          "internalType": "address",
          "name": "owner",
          "type": "address"
        },
        {
          "indexed": true,
          "internalType": "address",
          "name": "approved",
          "type": "address"
        },
        {
          "indexed": true,
          "internalType": "uint256",
          "name": "tokenId",
          "type": "uint256"
        }
      ],
      "name": "Approval",
      "type": "event"
    },
    {
      "anonymous": false,
      "inputs": [
        {
          "indexed": true,
          "internalType": "address",
          "name": "owner",
          "type": "address"
        },
        {
          "indexed": true,
          "internalType": "address",
          "name": "operator",
          "type": "address"
        },
        {
          "indexed": false,
          "internalType": "bool",
          "name": "approved",
          "type": "bool"
        }
      ],
      "name": "ApprovalForAll",
      "type": "event"
    },
    {
      "anonymous": false,
      "inputs": [
        {
          "indexed": true,
          "internalType": "address",
          "name": "from",
          "type": "address"
        },
        {
          "indexed": true,
          "internalType": "address",
          "name": "to",
          "type": "address"
        },
        {
          "indexed": true,
          "internalType": "uint256",
          "name": "tokenId",
          "type": "uint256"
        }
      ],
      "name": "Transfer",
      "type": "event"
    },
    {
      "inputs": [
        {
          "internalType": "address",
          "name": "to",
          "type": "address"
        },
        {
          "internalType": "uint256",
          "name": "tokenId",
          "type": "uint256"
        }
      ],
      "name": "approve",
      "outputs": [],
      "stateMutability": "nonpayable",
      "type": "function"
    },
    {
      "inputs": [
        {
          "internalType": "address",
          "name": "owner",
          "type": "address"
        }
      ],
      "name": "balanceOf",
      "outputs": [
        {
          "internalType": "uint256",
          "name": "",
          "type": "uint256"
        }
      ],
      "stateMutability": "view",
      "type": "function"
    },
    {
      "inputs": [
        {
          "internalType": "uint256",
          "name": "tokenId",
          "type": "uint256"
        }
      ],
      "name": "getApproved",
      "outputs": [
        {
          "internalType": "address",
          "name": "",
          "type": "address"
        }
      ],
      "stateMutability": "view",
      "type": "function"
    },
    {
      "inputs": [
        {
          "internalType": "uint256",
          "name": "tokenId",
          "type": "uint256"
        }
      ],
      "name": "getTokenData",
      "outputs": [
        {
          "internalType": "address",
          "name": "owner",
          "type": "address"
        },
        {
          "internalType": "string",
          "name": "metadataURI",
          "type": "string"
        },
        {
          "internalType": "bool",
          "name": "isRevoked",
          "type": "bool"
        }
      ],
      "stateMutability": "view",
      "type": "function"
    },
    {
      "inputs": [
        {
          "internalType": "address",
          "name": "owner",
          "type": "address"
        },
        {
          "internalType": "address",
          "name": "operator",
          "type": "address"
        }
      ],
      "name": "isApprovedForAll",
      "outputs": [
        {
          "internalType": "bool",
          "name": "",
          "type": "bool"
        }
      ],
      "stateMutability": "view",
      "type": "function"
    },
    {
      "inputs": [
        {
          "internalType": "address",
          "name": "to",
          "type": "address"
        },
        {
          "internalType": "string",
          "name": "metadataURI",
          "type": "string"
        }
      ],
      "name": "mint",
      "outputs": [
        {
          "internalType": "uint256",
          "name": "",
          "type": "uint256"
        }
      ],
      "stateMutability": "nonpayable",
      "type": "function"
    },
    {
      "inputs": [],
      "name": "name",
      "outputs": [
        {
          "internalType": "string",
          "name": "",
          "type": "string"
        }
      ],
      "stateMutability": "view",
      "type": "function"
    },
    {
      "inputs": [
        {
          "internalType": "uint256",
          "name": "tokenId",
          "type": "uint256"
        }
      ],
      "name": "ownerOf",
      "outputs": [
        {
          "internalType": "address",
          "name": "",
          "type": "address"
        }
      ],
      "stateMutability": "view",
      "type": "function"
    },
    {
      "inputs": [
        {
          "internalType": "uint256",
          "name": "tokenId",
          "type": "uint256"
        }
      ],
      "name": "revoke",
      "outputs": [],
      "stateMutability": "nonpayable",
      "type": "function"
    },
    {
      "inputs": [
        {
          "internalType": "address",
          "name": "from",
          "type": "address"
        },
        {
          "internalType": "address",
          "name": "to",
          "type": "address"
        },
        {
          "internalType": "uint256",
          "name": "tokenId",
          "type": "uint256"
        }
      ],
      "name": "safeTransferFrom",
      "outputs": [],
      "stateMutability": "nonpayable",
      "type": "function"
    },
    {
      "inputs": [
        {
          "internalType": "address",
          "name": "from",
          "type": "address"
        },
        {
          "internalType": "address",
          "name": "to",
          "type": "address"
        },
        {
          "internalType": "uint256",
          "name": "tokenId",
          "type": "uint256"
        },
        {
          "internalType": "bytes",
          "name": "data",
          "type": "bytes"
        }
      ],
      "name": "safeTransferFrom",
      "outputs": [],
      "stateMutability": "nonpayable",
      "type": "function"
    },
    {
      "inputs": [
        {
          "internalType": "address",
          "name": "operator",
          "type": "address"
        },
        {
          "internalType": "bool",
          "name": "approved",
          "type": "bool"
        }
      ],
      "name": "setApprovalForAll",
      "outputs": [],
      "stateMutability": "nonpayable",
      "type": "function"
    },
    {
      "inputs": [
        {
          "internalType": "bytes4",
          "name": "interfaceId",
          "type": "bytes4"
        }
      ],
      "name": "supportsInterface",
      "outputs": [
        {
          "internalType": "bool",
          "name": "",
          "type": "bool"
        }
      ],
      "stateMutability": "view",
      "type": "function"
    },
    {
      "inputs": [],
      "name": "symbol",
      "outputs": [
        {
          "internalType": "string",
          "name": "",
          "type": "string"
        }
      ],
      "stateMutability": "view",
      "type": "function"
    },
    {
      "inputs": [
        {
          "internalType": "uint256",
          "name": "",
          "type": "uint256"
        }
      ],
      "name": "tokenData",
      "outputs": [
        {
          "internalType": "address",
          "name": "owner",
          "type": "address"
        },
        {
          "internalType": "string",
          "name": "metadataURI",
          "type": "string"
        },
        {
          "internalType": "bool",
          "name": "isRevoked",
          "type": "bool"
        }
      ],
      "stateMutability": "view",
      "type": "function"
    },
    {
      "inputs": [
        {
          "internalType": "uint256",
          "name": "tokenId",
          "type": "uint256"
        }
      ],
      "name": "tokenURI",
      "outputs": [
        {
          "internalType": "string",
          "name": "",
          "type": "string"
        }
      ],
      "stateMutability": "view",
      "type": "function"
    },
    {
      "inputs": [
        {
          "internalType": "address",
          "name": "from",
          "type": "address"
        },
        {
          "internalType": "address",
          "name": "to",
          "type": "address"
        },
        {
          "internalType": "uint256",
          "name": "tokenId",
          "type": "uint256"
        }
      ],
      "name": "transferFrom",
      "outputs": [],
      "stateMutability": "nonpayable",
      "type": "function"
    }
  ],
  "bytecode": "0x60803462000324576001600160401b0390604090808201838111828210176200030e578252601681526020927f41697244414f20536f756c626f756e6420546f6b656e00000000000000000000848301528251838101818110838211176200030e57845260048152631054d09560e21b858201528251908282116200030e5760008054926001958685811c9516801562000303575b89861014620002ef578190601f958681116200029c575b508990868311600114620002385784926200022c575b5050600019600383901b1c191690861b1781555b8151938411620002185784548581811c911680156200020d575b88821014620001f957838111620001b1575b50869284116001146200014b578394959650926200013f575b5050600019600383901b1c191690821b1781555b6006555161120390816200032a8239f35b0151905038806200011a565b9190601f1984169685845280842093905b8882106200019957505083859697106200017f575b505050811b0181556200012e565b015160001960f88460031b161c1916905538808062000171565b8087859682949686015181550195019301906200015c565b8582528782208480870160051c8201928a8810620001ef575b0160051c019086905b828110620001e357505062000101565b838155018690620001d3565b92508192620001ca565b634e487b7160e01b82526022600452602482fd5b90607f1690620000ef565b634e487b7160e01b81526041600452602490fd5b015190503880620000c1565b8480528a85208994509190601f198416865b8d8282106200028557505084116200026b575b505050811b018155620000d5565b015160001960f88460031b161c191690553880806200025d565b8385015186558c979095019493840193016200024a565b9091508380528984208680850160051c8201928c8610620002e5575b918a91869594930160051c01915b828110620002d6575050620000ab565b8681558594508a9101620002c6565b92508192620002b8565b634e487b7160e01b83526022600452602483fd5b94607f169462000094565b634e487b7160e01b600052604160045260246000fd5b600080fdfe608080604052600436101561001357600080fd5b60003560e01c90816301ffc9a714610cbe5750806306fdde0314610c13578063081812fc14610bbc578063095ea7b314610a4257806320c5429b146109a257806323b872dd1461099d57806342842e0e1461099d5780636352211e1461096d57806370a08231146108d657806395d89b41146107f3578063a22cb46514610718578063b09afec114610670578063b4b5b48f14610620578063b88d4fde146105c6578063c87b56dd146104b1578063d0def521146101355763e985e9c5146100da57600080fd5b34610130576040366003190112610130576100f3610d69565b6100fb610d7f565b9060018060a01b03809116600052600560205260406000209116600052602052602060ff604060002054166040519015158152f35b600080fd5b346101305760403660031901126101305761014e610d69565b60243567ffffffffffffffff811161013057366023820112156101305761017f903690602481600401359101610f14565b6006549190600019831461049b5760018301600655604051906060820182811067ffffffffffffffff8211176103bc5760405260018060a01b039182841681526020810191825260006040820152846000526007602052604060002091838251166bffffffffffffffffffffffff60a01b8454161783555180519067ffffffffffffffff82116103bc576102166001850154610df7565b601f8111610454575b50602090601f83116001146103dd57928260029360409361027297966000926103d2575b50508160011b916000199060031b1c19161760018501555b0151151591019060ff801983541691151516179055565b604051906020820182811067ffffffffffffffff8211176103bc5760405260008252808316156103785761034b928480926102cb6102c583600052600260205260018060a01b0360406000205416151590565b15611063565b6000828152600260205260409020546102ee906001600160a01b031615156102c5565b82166000818152600360209081526040808320805460010190558483526002909152812080546001600160a01b031916831790557fddf252ad1be2c89b69c2b068fc378daa952ba7f163c4a11628f55a4df523b3ef8180a46110af565b1561035b57602090604051908152f35b60405162461bcd60e51b81528061037460048201611010565b0390fd5b606460405162461bcd60e51b815260206004820152602060248201527f4552433732313a206d696e7420746f20746865207a65726f20616464726573736044820152fd5b634e487b7160e01b600052604160045260246000fd5b015190508a80610243565b90601f198316916001860160005260206000209260005b81811061043c5750936040936102729796936001938360029810610423575b505050811b01600185015561025b565b015160001960f88460031b161c191690558a8080610413565b929360206001819287860151815501950193016103f4565b600185016000526020600020601f840160051c810160208510610494575b601f830160051c8201811061048857505061021f565b60008155600101610472565b5080610472565b634e487b7160e01b600052601160045260246000fd5b3461013057602080600319360112610130576004356000818152600260205260409020546001600160a01b03161561056957806000526007825260ff6002604060002001541661052b57600052600781526105126001604060002001610e53565b90610527604051928284938452830190610d29565b0390f35b60405162461bcd60e51b8152600481018390526016602482015275151bdad95b881a185cc81899595b881c995d9bdad95960521b6044820152606490fd5b60405162461bcd60e51b815260048101839052602f60248201527f4552433732314d657461646174613a2055524920717565727920666f72206e6f60448201526e3732bc34b9ba32b73a103a37b5b2b760891b6064820152608490fd5b34610130576080366003190112610130576105df610d69565b506105e8610d7f565b5060643567ffffffffffffffff811161013057366023820112156101305761061a903690602481600401359101610f14565b50610f4b565b3461013057602036600319011261013057600435600090815260076020526040902080546001600160a01b031661052760ff600261066060018601610e53565b9401541660405193849384610dc9565b34610130576020366003190112610130576004356000818152600260205260409020546001600160a01b0316156106dc576000526007602052604060002060018060a01b038154166105276106cf600160ff6002860154169401610e53565b9260405193849384610dc9565b60405162461bcd60e51b8152602060048201526014602482015273151bdad95b88191bd95cc81b9bdd08195e1a5cdd60621b6044820152606490fd5b3461013057604036600319011261013057610731610d69565b6024359081151590818303610130576001600160a01b0316913383146107ae576107809033600052600560205260406000208460005260205260406000209060ff801983541691151516179055565b6040519081527f17307eab39ab6107e8899845ad3d59bd9653f200f220920489ca2b5937696c3160203392a3005b60405162461bcd60e51b815260206004820152601960248201527f4552433732313a20617070726f766520746f2063616c6c6572000000000000006044820152606490fd5b346101305760003660031901126101305760405160006001826001549261081984610df7565b92838352602094856001821691826000146108b6575050600114610859575b5061084592500383610e31565b610527604051928284938452830190610d29565b84915060016000527fb10e2d527612073b26eecdfd717e6a320cf44b4afac2b0732d9fcbe2b7fa0cf6906000915b85831061089e575050610845935082010185610838565b80548389018501528794508693909201918101610887565b60ff19168582015261084595151560051b85010192508791506108389050565b34610130576020366003190112610130576001600160a01b036108f7610d69565b1680156109165760005260036020526020604060002054604051908152f35b60405162461bcd60e51b815260206004820152602960248201527f4552433732313a2061646472657373207a65726f206973206e6f7420612076616044820152683634b21037bbb732b960b91b6064820152608490fd5b3461013057602036600319011261013057602061098b600435610fea565b6040516001600160a01b039091168152f35b610d95565b34610130576020366003190112610130576004356000818152600760205260409020546001600160a01b031633036109f2576000908152600760205260409020600201805460ff19166001179055005b60405162461bcd60e51b815260206004820152602260248201527f4f6e6c792074686520746f6b656e206f776e65722063616e207265766f6b65206044820152611a5d60f21b6064820152608490fd5b3461013057604036600319011261013057610a5b610d69565b602435906001600160a01b038080610a7285610fea565b16921691808314610b6d57803314908115610b48575b5015610add57600083815260046020526040902080546001600160a01b03191683179055610ab583610fea565b167f8c5be1e5ebec7d5bd14f71427d1e84f3dd0314c0f7b2291e5b200ac8c7c3b925600080a4005b60405162461bcd60e51b815260206004820152603d60248201527f4552433732313a20617070726f76652063616c6c6572206973206e6f7420746f60448201527f6b656e206f776e6572206f7220617070726f76656420666f7220616c6c0000006064820152608490fd5b9050600052600560205260406000203360005260205260ff6040600020541684610a88565b60405162461bcd60e51b815260206004820152602160248201527f4552433732313a20617070726f76616c20746f2063757272656e74206f776e656044820152603960f91b6064820152608490fd5b3461013057602036600319011261013057600435600081815260026020526040902054610bf3906001600160a01b03161515610f9e565b6000526004602052602060018060a01b0360406000205416604051908152f35b3461013057600036600319011261013057604051600080549082610c3683610df7565b91828252602093600190856001821691826000146108b6575050600114610c64575061084592500383610e31565b6000808052859250907f290decd9548b62a8d60345a988386fc84ba6bc95484008f6362f93160ef3e5635b858310610ca6575050610845935082010185610838565b80548389018501528794508693909201918101610c8f565b34610130576020366003190112610130576004359063ffffffff60e01b8216809203610130576020916380ac58cd60e01b8114908115610d18575b8115610d07575b5015158152f35b6301ffc9a760e01b14905083610d00565b635b5e139f60e01b81149150610cf9565b919082519283825260005b848110610d55575050826000602080949584010152601f8019910116010190565b602081830181015184830182015201610d34565b600435906001600160a01b038216820361013057565b602435906001600160a01b038216820361013057565b34610130576060366003190112610130576001600160a01b03600435818116036101305760243590811614610f4b57600080fd5b91610def9060409295949560018060a01b03168452606060208501526060840190610d29565b931515910152565b90600182811c92168015610e27575b6020831014610e1157565b634e487b7160e01b600052602260045260246000fd5b91607f1691610e06565b90601f8019910116810190811067ffffffffffffffff8211176103bc57604052565b90604051918260008254610e6681610df7565b90818452602094600191600181169081600014610ed65750600114610e97575b505050610e9592500383610e31565b565b600090815285812095935091905b818310610ebe575050610e959350820101388080610e86565b85548884018501529485019487945091830191610ea5565b92505050610e9594925060ff191682840152151560051b820101388080610e86565b67ffffffffffffffff81116103bc57601f01601f191660200190565b929192610f2082610ef8565b91610f2e6040519384610e31565b829481845281830111610130578281602093846000960137010152565b60405162461bcd60e51b815260206004820152602560248201527f536f756c626f756e6420746f6b656e7320617265206e6f6e2d7472616e7366656044820152647261626c6560d81b6064820152608490fd5b15610fa557565b60405162461bcd60e51b815260206004820152601860248201527f4552433732313a20696e76616c696420746f6b656e20494400000000000000006044820152606490fd5b6000908152600260205260409020546001600160a01b031661100d811515610f9e565b90565b60809060208152603260208201527f4552433732313a207472616e7366657220746f206e6f6e20455243373231526560408201527131b2b4bb32b91034b6b83632b6b2b73a32b960711b60608201520190565b1561106a57565b60405162461bcd60e51b815260206004820152601c60248201527f4552433732313a20746f6b656e20616c7265616479206d696e746564000000006044820152606490fd5b91929091803b156111c4576110fc936040519081630a85bd0160e11b9384825233600483015260009687602484015260448301526080606483015281878160209a8b966084830190610d29565b03926001600160a01b03165af1849181611180575b5061116f575050503d600014611167573d61112b81610ef8565b906111396040519283610e31565b81528091833d92013e5b805191826111645760405162461bcd60e51b81528061037460048201611010565b01fd5b506060611143565b6001600160e01b0319161492509050565b9091508581813d83116111bd575b6111988183610e31565b810103126111b957516001600160e01b0319811681036111b9579038611111565b8480fd5b503d61118e565b5091505060019056fea26469706673582212207b909540fcad03de76335718bec0537478fe921aa4078bb16056f0afc080290764736f6c63430008180033",
  "linkReferences": {},
  "deployedLinkReferences": {}
}